:100000000C9432000C9430020C9457020C947E0233
:100010000C944F000C944F000C944F000C94AD04C2
:100020000C944F000C944F000C944F000C944F0014
:100030000C944F000C944F000C944F000C944F0004
:100040000C944F000C944F000C944F000C944F00F4
:100050000C944F007C047F04830487048B048F047A
:100060009304970411241FBECFE5D8E0DEBFCDBFB7
:1000700010E0A0E6B0E0EEECFDE002C005900D92CD
:10008000A23BB107D9F720E0A2EBB0E001C01D927E
:10009000AB3CB207E1F70E94E0030C94E5060C9438
:1000A000000086B1866886B980E487B9089597B163
:1000B0008F71982B97B986B1806486B9349BFECF37
:1000C00086B1806186B984B195B10895811119C056
:1000D000413059F42AB381E090E002C0880F991FA3
:1000E0006A95E2F7822B8ABB08952AB381E090E0FB
:1000F00002C0880F991F6A95E2F7809582238ABB18
:1001000008958130C9F4413059F427B381E090E07B
:1001100002C0880F991F6A95E2F7822B87BB08956A
:1001200027B381E090E002C0880F991F6A95E2F73B
:100130008095822387BB08958230C9F4413059F4F9
:1001400024B381E090E002C0880F991F6A95E2F71E
:10015000822B84BB089524B381E090E002C0880F15
:10016000991F6A95E2F78095822384BB08958330B6
:10017000C1F4413059F421B381E090E002C0880F0E
:10018000991F6A95E2F7822B81BB089521B381E024
:1001900090E002C0880F991F6A95E2F7809582234C
:1001A00081BB0895811119C0413059F42BB381E00E
:1001B00090E002C0880F991F6A95E2F7822B8BBBF3
:1001C00008952BB381E090E002C0880F991F6A95D3
:1001D000E2F7809582238BBB08958130C9F44130CA
:1001E00059F428B381E090E002C0880F991F6A9506
:1001F000E2F7822B88BB089528B381E090E002C02B
:10020000880F991F6A95E2F78095822388BB08952D
:100210008230C9F4413059F425B381E090E002C046
:10022000880F991F6A95E2F7822B85BB089525B345
:1002300081E090E002C0880F991F6A95E2F78095EF
:10024000822385BB08958330C1F4413059F422B331
:1002500081E090E002C0880F991F6A95E2F7822B37
:1002600082BB089522B381E090E002C0880F991FFD
:100270006A95E2F78095822382BB089585E080B974
:1002800081B18C7F81B9089524EA26BF06B607FEA6
:10029000FDCF21B1287F2830B1F520EA23B924E829
:1002A00026BF06B607FEFDCF21B1287F283161F7B2
:1002B00093B994E896BF06B607FEFDCF91B1987F3B
:1002C000983219F583B984E886BF06B607FEFDCFDC
:1002D00081B1887F8832D9F463B984E886BF06B6D5
:1002E00007FEFDCF81B1887F883299F484E986BF0B
:1002F00006B604FCFDCF8FEB9DE50197F1F700C03A
:10030000000081E0089580E0089580E0089580E095
:10031000089580E0089524EA26BF06B607FEFDCFC3
:1003200021B1287F283009F043C020EA23B924E80E
:1003300026BF06B607FEFDCF21B1287F283159F729
:1003400093B994E896BF06B607FEFDCF91B1987FAA
:10035000983281F583B984E886BF06B607FEFDCFE3
:1003600081B1887F883241F584EA86BF06B607FEF0
:10037000FDCF81B1887F803109F581EA83B984E8B6
:1003800086BF06B607FEFDCF81B1887F8034C1F4F9
:1003900084E886BF06B607FEFDCF81B1887F883529
:1003A00089F483B194E996BF06B604FCFDCF0895A5
:1003B00080E0089580E0089580E0089580E0089549
:1003C00080E0089580E0089581110BC081B38B7F98
:1003D00081BB8BB780648BBF85B78D7F682B65BF72
:1003E0000895813081F481B3877F81BB8BB78068AA
:1003F0008BBF70E0660F771F660F771F85B7837F0F
:10040000682B65BF08958230A1F487B38B7F87BBCB
:1004100088B3846088BB8BB780628BBF623021F465
:1004200084B78F7B84BF0895633019F484B78064E8
:1004300084BF0895813049F018F0823059F00EC021
:100440007093B7006093B60009C07093B5006093D5
:10045000B40004C07093B3006093B2007894089520
:100460001F920F920FB60F9211242F933F934F9329
:100470005F936F937F938F939F93AF93BF93EF930C
:10048000FF93E091B600F091B7000995FF91EF91CD
:10049000BF91AF919F918F917F916F915F914F919C
:1004A0003F912F910F900FBE0F901F9018951F92A4
:1004B0000F920FB60F9211242F933F934F935F9398
:1004C0006F937F938F939F93AF93BF93EF93FF931C
:1004D000E091B400F091B5000995FF91EF91BF91C3
:1004E000AF919F918F917F916F915F914F913F91CC
:1004F0002F910F900FBE0F901F9018951F920F9283
:100500000FB60F9211242F933F934F935F936F93E6
:100510007F938F939F93AF93BF93EF93FF93E0915C
:10052000B200F091B3000995FF91EF91BF91AF91A7
:100530009F918F917F916F915F914F913F912F91FB
:100540000F900FBE0F901F90189581E09091B8000A
:10055000911180E08093B800882381F087E090E0DB
:100560000E948B018093630062E084ED90E30E941F
:1005700070048EE393E00E949F04089564E670E0A7
:1005800083E00E941C0564E670E080E00E941C0588
:100590000E94A80481E0809362001092BA008093C8
:1005A0006100809360006091630087E090E00E94AA
:1005B00044018111109263000895CF93DF93CDEC35
:1005C0008C9FD12D11244D2F469546954695440F6D
:1005D000942F990F990F490F841B482FD695D695C4
:1005E000D69564E670E083E00E94EF04DC9F412D25
:1005F0001124469546954695440F842F880F880F01
:10060000480FD41B4D2F64E670E080E00E94EF0499
:10061000DF91CF91089587E00E945700BC0180E0F0
:1006200090E00E94D50526EF38E24CE950E40E94A4
:10063000630620E030E040E251E40E9434050E946D
:10064000A605862F089580E020E030E008C0E82F5E
:10065000F0E0E054FF4F9081290F311D8F5F8A3009
:10066000B0F3ADECBCEC0E94D606969587959695B6
:100670008795969587958093CA000895CF93DF93C9
:10068000C091BB00D0E00E940B03C054DF4F8883B1
:100690008091BB00893020F48F5F8093BB0002C043
:1006A0001092BB008091B900882351F040B340956F
:1006B000441F4427441F67E083E00E94D20005C026
:1006C00041E067E083E00E94D2008091BB0081118D
:1006D0000AC08091BA00811106C00E942303809154
:1006E000CA000E94DD028091BA00882381F18091C6
:1006F000BD008F5F8093BD009091BC009F5F909381
:10070000BC008A3091F464E670E083E00E941C052E
:1007100064E670E080E00E941C058FE19EE4019792
:10072000F1F700C000001092BD008091BC00823340
:1007300071F41092BA001092BC0064E670E083E09D
:100740000E941C0564E670E080E00E941C05DF91B9
:10075000CF91089530C0809163000E94DD02B69968
:100760000FC080916100882359F080916300873425
:1007700018F48B5F809363001092BC0010926100AC
:10078000B7990FC080916000882359F08091630071
:10079000883218F08550809363001092BC0010924C
:1007A0006000B69B03C081E080936100B79B03C0EB
:1007B00081E0809360008091BA008111CCCF0895D0
:1007C00064E670E080E00E94D70464E670E083E0B5
:1007D0000E94D70440E067E080E00E9466000E942B
:1007E000510040E066E081E00E94660041E066E082
:1007F00081E00E94D20040E067E081E00E94660054
:1008000041E067E081E00E94D20041E067E083E0E0
:100810000E94660062E082E00E94E40165EA72E004
:1008200082E00E941A0264E670E083E00E941C05E8
:1008300064E670E080E00E941C050E943E01609129
:10084000630087E090E00E9444018091B800882313
:10085000E1F3B69910C080916100882361F0109295
:10086000610080916200813031F4109262008093C7
:10087000BA000E94AA03B79910C080916000882333
:1008800061F01092600080916200813031F410922A
:1008900062008093BA000E94AA038091CA0020914E
:1008A0006300821758F430E0A901481B5109453014
:1008B00051055CF081E08093B90007C090E0821B95
:1008C0009109059714F01092B900B69B03C081E01E
:1008D00080936100B79BB9CF81E080936000B5CF72
:1008E0009BBD8ABD862F90E08830910520F5FC01E4
:1008F000E65DFF4F0C94D0061FBC1EBC08951FBCC4
:1009000089E08EBD08951FBC8AE08EBD08951FBC8E
:100910008BE08EBD08951FBC8CE08EBD08951FBC7A
:100920008DE08EBD08951FBC8EE08EBD08951FBC66
:100930008FE08EBD08951FBC89E08EBD0895909311
:10094000BF008093BE0089B7806189BF7894089505
:100950001EBC88B7806188BF08951F920F920FB6A2
:100960000F9211242F933F934F935F936F937F9335
:100970008F939F93AF93BF93EF93FF93E091BE004C
:10098000F091BF00099588B7806188BFFF91EF9112
:10099000BF91AF919F918F917F916F915F914F9197
:1009A0003F912F910F900FBE0F901F9018950F93AE
:1009B0001F93CF93DF93D82F8B01C0E009C0F801BC
:1009C000EC0FF11D41E060818D2F0E946600CF5F2A
:1009D000C730A8F3DF91CF911F910F910895FF9237
:1009E0000F931F93CF93DF93F82EEB01042F10E0AA
:1009F0001BC0212F30E0FE01E20FF31F402F50E01B
:100A0000CA01880F991F880F991F880F991F841B8F
:100A1000950B85599F4FDC01A20FB31F4C9160814C
:100A20008F2D0E94D2001F5F173018F3DF91CF91F6
:100A30001F910F91FF9008950F931F93CF93DF9312
:100A4000D82F8B01C0E009C0F801EC0FF11D41E087
:100A500060818D2F0E94D200CF5FC730A8F3DF9155
:100A6000CF911F910F9108950E9448050C9429067B
:100A70000E94220658F00E941B0640F029F45F3FB6
:100A800029F00C94120651110C945D060C94180672
:100A90000E943A0668F39923B1F3552391F3951B0D
:100AA000550BBB27AA2762177307840738F09F5F8F
:100AB0005F4F220F331F441FAA1FA9F335D00E2EFC
:100AC0003AF0E0E832D091505040E695001CCAF769
:100AD0002BD0FE2F29D0660F771F881FBB1F26172C
:100AE00037074807AB07B0E809F0BB0B802DBF0103
:100AF000FF2793585F4F3AF09E3F510578F00C94D2
:100B000012060C945D065F3FE4F3983ED4F386959D
:100B100077956795B795F7959F5FC9F7880F911DF2
:100B20009695879597F90895E1E0660F771F881FDE
:100B3000BB1F621773078407BA0720F0621B730B91
:100B4000840BBA0BEE1F88F7E09508950E944206C9
:100B500088F09F5798F0B92F9927B751B0F0E1F07E
:100B6000660F771F881F991F1AF0BA95C9F714C02E
:100B7000B13091F00E945C06B1E008950C945C06DF
:100B8000672F782F8827B85F39F0B93FCCF3869567
:100B900077956795B395D9F73EF4909580957095C4
:100BA00061957F4F8F4F9F4F0895E89409C097FB41
:100BB0003EF490958095709561957F4F8F4F9F4F34
:100BC0009923A9F0F92F96E9BB279395F695879578
:100BD00077956795B795F111F8CFFAF4BB0F11F43B
:100BE00060FF1BC06F5F7F4F8F4F9F4F16C08823E2
:100BF00011F096E911C0772321F09EE8872F762F18
:100C000005C0662371F096E8862F70E060E02AF058
:100C10009A95660F771F881FDAF7880F9695879544
:100C200097F9089597F99F6780E870E060E008956C
:100C30009FEF80EC089500240A94161617061806F4
:100C40000906089500240A941216130614060506D0
:100C50000895092E0394000C11F4882352F0BB0F61
:100C600040F4BF2B11F460FF04C06F5F7F4F8F4FC4
:100C70009F4F089557FD9058440F551F59F05F3FFF
:100C800071F04795880F97FB991F61F09F3F79F0AE
:100C900087950895121613061406551FF2CF469530
:100CA000F1DF08C0161617061806991FF1CF8695B2
:100CB0007105610508940895E894BB276627772796
:100CC000CB0197F908950E9476060C9429060E949C
:100CD0001B0638F00E94220620F0952311F00C9498
:100CE00012060C94180611240C945D060E943A0614
:100CF00070F3959FC1F3950F50E0551F629FF0016F
:100D0000729FBB27F00DB11D639FAA27F00DB11D87
:100D1000AA1F649F6627B00DA11D661F829F222710
:100D2000B00DA11D621F739FB00DA11D621F839F97
:100D3000A00D611D221F749F3327A00D611D231F6D
:100D4000849F600D211D822F762F6A2F11249F57BB
:100D500050409AF0F1F088234AF0EE0FFF1FBB1FBE
:100D6000661F771F881F91505040A9F79E3F51057D
:100D700080F00C9412060C945D065F3FE4F3983EFD
:100D8000D4F3869577956795B795F795E7959F5F27
:100D9000C1F7FE2B880F911D9695879597F90895B9
:100DA000EE0FFF1F0590F491E02D0994A29FB00172
:100DB000B39FC001A39F700D811D1124911DB29F8F
:0E0DC000700D811D1124911D0895F894FFCF30
:100DCE000101013C000102030405060000000000C1
:100DDE0000010100000101010100000100000100FD
:100DEE0000000000010100010000010100000001EF
:100DFE0000000100000001000000000000000001E2
:100E0E0001010000000000000000000000000100D1
:020E1E000000D2
:00000001FF
